:100000000C94B2020C94CF020C94CF020C94CF0249
:100010000C94CF020C94CF020C94CF020C94CF021C
:100020000C94CF020C94CF020C94CF020C94CF020C
:100030000C94CF020C94CF020C9416060C94CF02B1
:100040000C94CF020C94CF020C94CF020C94CF02EC
:100050000C94CF020C947C030C94CF020C94CF022E
:100060000C94CF020C94CF0200000000007CDAF266
:10007000DA7C7CD6F2D67C387C3E7C38183C7E3CE0
:100080001838EABEEA38387AFE7A3800183C180088
:10009000FFE7C3E7FF0018241800FFE7DBE7FF0CCA
:1000A000125C607064949E946402FEA0A0E002FE64
:1000B000A0A4FC5A3CE73C5AFE7C38381010383873
:1000C0007CFE2844FE4428FAFA00FAFA6090FE808A
:1000D000FE006691A95606060606062945FF452933
:1000E00010207E201008047E0408101054381010D0
:1000F00038541010780808080830783078300C1C14
:100100007C1C0C60707C706000000000000000FA35
:10011000000000E000E00028FE28FE282454FE54E1
:1001200048C4C81026466C926A040A0010E0C00059
:10013000003844820000824438005438FE3854109D
:10014000107C101000010E0C001010101010000098
:1001500006060004081020407C8A92A27C0042FE21
:1001600002004E92929262848292B2CC182848FE8B
:1001700008E4A2A2A29C3C5292928C82848890E0D5
:100180006C9292926C629292947800002800000027
:10019000022C0000001028448228282828280082E9
:1001A00044281040809A90607C82BA9A723E4888B7
:1001B000483EFE9292926C7C82828244FE828282CF
:1001C0007CFE92929282FE909090807C82828ACE77
:1001D000FE101010FE0082FE8200040282FC80FEEF
:1001E00010284482FE02020202FE403840FEFE2039
:1001F0001008FE7C8282827CFE909090607C828AD5
:10020000847AFE90989462649292924CC080FE80B0
:10021000C0FC020202FCF8040204F8FC021C02FC0E
:10022000C6281028C6C0201E20C0869A92B2C200DE
:10023000FE828282402010080400828282FE2040DA
:10024000804020020202020200C0E01000042A2ABC
:100250001E02FE1422221C1C222222141C22221402
:10026000FE1C2A2A2A1800107E9040182525391EC7
:10027000FE1020201E0022BE0200040202BC00FE6E
:10028000081422000082FE02003E201E201E3E10A6
:1002900020201E1C2222221C3F182424181824244B
:1002A000183F3E10202010122A2A2A242020FC2247
:1002B000243C0202043E38040204383C020C023C96
:1002C0002214081422320909093E22262A32220069
:1002D000106C82000000EE000000826C1000408074
:1002E0004020403C64C4643C78858586485C0202BA
:1002F000045E1C2A2AAA9A84AAAA9E82842A2A1EFA
:100300008284AA2A1E02042AAA9E0230784A4E48F3
:100310009CAAAAAA9A9C2A2A2A9A9CAA2A2A1A0041
:1003200000A23E820040A2BE420080A23E020F9484
:1003300024940F0F14A4140F3E2AAAA200042A2A00
:100340003E2A3E5090FE924C9292924C4C121212C7
:100350004C4C5212120C5C8282845E5C4202041E7F
:1003600000B90505BE9C2222229CBC020202BC3CB4
:1003700024FF2424127E92C266D4F43FF4D4FF906A
:10038000946F0403117E90C0042A2A9E82000022EA
:10039000BE820C1212524C1C0202445E005E50508F
:1003A0004EBEB0988CBE649494F414649494946497
:1003B0000C12B202041C10101010101010101CF4BB
:1003C0000813355DF408142C5F0000DE00001028CF
:1003D00054284444285428105500AA005555AA55BD
:1003E000AA55AA55AA55AA000000FF00080808FF50
:1003F00000282828FF000808FF00FF08080F080F42
:100400002828283F002828EF00FF0000FF00FF28D1
:10041000282F203F2828E808F80808F808F8282896
:1004200028F8000808080F00000000F8080808086D
:10043000F8080808080F08000000FF080808080866
:1004400008080808FF08000000FF280000FF00FF60
:100450000000F808E800003F202F2828E808E828D6
:10046000282F202F0000FF00EF28282828282828E0
:10047000EF00EF282828E8280808F808F828282896
:100480002F2808080F080F0000F808F8000000F8EF
:10049000280000003F2800000F080F0808FF08FF91
:1004A000282828FF28080808F8000000000F08FF87
:1004B000FFFFFFFF0F0F0F0F0FFFFFFF00000000F8
:1004C00000FFFFF0F0F0F0F01C22221C223E5454FA
:1004D0007C287E40406060407E407E40C6AA92827A
:1004E000C61C22223C20027E04780460407E4040EC
:1004F00099A5E7A5993854925438324E804E320C63
:1005000052B2B20C0C121E120C3D465A62BC7C92C6
:100510009292007E8080807E54545454542222FA59
:100520002222028A5222020222528A020000FF8004
:10053000C00701FF00001010D6D6106C486C246C68
:1005400060F090F060000018180000000808000C2F
:1005500002FF808000F88080780098B8E848003C6E
:100560003C3C3C0011241FBECFEFD8E0DEBFCDBF26
:1005700015E0A0E0B1E0E6EFF2E202C005900D92D6
:10058000AC3EB107D9F726E0ACEEB5E001C01D9254
:10059000A230B207E1F70E940A0C0C9479110C9476
:1005A0000000ECE7F0E0108280E48083EAE7F0E00E
:1005B000808187688083ABE7B0E08C918C938081E9
:1005C0008860808378940895ECE7F0E080819091D2
:1005D000EE05887F892B80838091EE05811105C00F
:1005E0008AE087B98DE088B90FC08091EE0583302D
:1005F00029F485E087B98BE088B906C08091EE05C3
:10060000843011F417B888B9EAE7F0E0808180649B
:10061000808380E00895883799F52091F305309123
:10062000F40580911201909113012817390720F4E5
:100630009093F4058093F3054091F3055091F405F0
:1006400020911001309111012417350720F43093C7
:10065000F4052093F3056091F3057091F405681B90
:10066000790B80E090E00E947E0D20910A0130918C
:100670000B0140910C0150910D010E940C0E32C0F3
:100680002091F1053091F20580910E0190910F01BA
:100690002817390720F49093F2058093F105809193
:1006A000F1059091F20560910801709109016817B8
:1006B000790720F47093F2056093F1058091F105BC
:1006C0009091F205681B790B80E090E00E947E0D0E
:1006D00020910401309105014091060150910701DC
:1006E0000E940C0E20E030E040E05FE30E94DC0C52
:1006F0000E944F0D862F08951F920F920FB60F92F2
:1007000011242F938F939F9380917800909179007B
:100710009093ED058093EC052091EE05211108C022
:100720009093F4058093F30583E08093EE0516C063
:100730002091EE05233041F49093F2058093F1056A
:1007400084E08093EE050AC02091EE05243031F458
:100750009093F0058093EF051092EE059F918F9195
:100760002F910F900FBE0F901F9018958B3068F44B
:10077000A62FB0E0E42FF0E03A96EA17FB073CF032
:1007800091E0641728F490E003C090E001C090E08D
:10079000873760F0E62FF0E0422F50E0465F5F4F72
:1007A0004E175F071CF0621708F091E0892F08953B
:1007B000809115018B3788F08091F7058F5F8093CA
:1007C000F7058091F705833051F485E090E0909330
:1007D000FB058093FA0581E0089580E0089581E0AB
:1007E000089580911501863088F48091F6058F5F19
:1007F0008093F6058091F605833051F485E090E012
:100800009093FB058093FA0581E0089580E00895B8
:1008100081E00895CF930E94E40288E70E940B03D1
:10082000C82F89E70E940B039FED9C0F943498F723
:100830009AEC980F9D3078F71F928F931F92CF9369
:1008400084E495E09F938F930E94790E2FEF89E6C1
:1008500098E1215080409040E1F700C0000081E025
:1008600090E09093FB058093FA050F900F900F9006
:100870000F900F900F90CF9108951F93CF93DF9318
:100880001092F4051092F3051092F2051092F10502
:100890002FEF87EA91E6215080409040E1F700C0B9
:1008A00000000E94E40288E70E940B03C82F89E73A
:1008B0000E940B039AEF9C0F973348F49BEF980F1D
:1008C0009B3078F71092F805D1E010E00DC09FEA58
:1008D0009C0F9A3230F79BEF980F9B3010F791E006
:1008E0009093F805D2E010E01F928F931F92CF9360
:1008F00087E695E09F938F930E94790E1F93DF9375
:100900001F93DF938AE795E09F938F930E94790E60
:1009100082E090E09093FB058093FA058DB79EB737
:100920000C960FB6F8949EBF0FBE8DBFDF91CF918E
:100930001F9108951F93CF93DF931092F4051092A7
:10094000F3051092F2051092F1052FEF87EA91E678
:10095000215080409040E1F700C000000E94E40276
:1009600088E70E940B03C82F89E70E940B039CEFC6
:100970009C0F953250F49BEF980F9E3008F04FC0BB
:100980001092F905D1E010E01BC095ED9C0F993253
:1009900050F49BEF980F9E3008F791E09093F90583
:1009A000D2E010E00DC09CEA9C0F9732B8F69BEFA6
:1009B000980F9E3098F692E09093F905D3E010E0FE
:1009C0001F928F931F92CF9387E695E09F938F930B
:1009D0000E94790E1F93DF931F93DF938AE795E0C0
:1009E0009F938F930E94790E81E00E94860B2FEFD8
:1009F00089E698E1215080409040E1F700C0000076
:100A000083E090E09093FB058093FA058DB79EB745
:100A10000C960FB6F8949EBF0FBE8DBF06C095ED25
:100A20009C0F993208F49ACFBECFDF91CF911F91DE
:100A30000895CF9388E70E940B03C82F89E70E948F
:100A40000B03CF3650F09091F805913091F490E07F
:100A500090930101809300013DC0C43150F4909106
:100A6000F805913031F490E09093030180930201F6
:100A700031C08091F80581112DC08091150181341C
:100A800038F08091140190E090930101809300016F
:100A90006091EF057091F00568547140072E000CCD
:100AA000880B990B0E94800D2DEC3CEC4CE45DE32F
:100AB0000E940C0E0E94480D6093F5058091020182
:100AC00090910301860F911D67FD9A959093030104
:100AD00080930201CF910895CF93C82F80E4809333
:100AE000150180E28093140185E085B92FEF83ED35
:100AF00090E3215080409040E1F700C0000088E181
:100B000091E00E94DD0684E085B98C2F0E94860B5F
:100B1000CF910895EF920F93CF93C82F4091140176
:100B20006091150100E023E088E191E00E942B092B
:100B30000E94D803811162C00E94F10381115EC03E
:100B4000809114018D3320F4809114018B30B0F426
:100B500080911601819580931601E8E8F0E08FEF0F
:100B600091E0918380832FEF81EE94E021508040CB
:100B70009040E1F700C00000118210822091000136
:100B800030910101409102015091030160911401E3
:100B9000809115010F2EFAE0EF2EF02D03E00E9458
:100BA000B603882349F0809117018195809317013E
:100BB00088E191E00E949E069091150180911701B5
:100BC000890F809315019091140180911601890F6E
:100BD0008093140140911401609115010C2F23E0C2
:100BE00088E191E00E942B09EC2E06E32AE748E019
:100BF00063E088E191E00E94F70714C0E8E8F0E0C4
:100C00008FEF91E0918380832FEF83EC99E0215067
:100C100080409040E1F700C00000118210828C2FCC
:100C20000E946C05CF910F91EF9008951F920F9243
:100C30000FB60F9211248F9385B18F6E85B98F9166
:100C40000F900FBE0F901F9018955C9827E030E032
:100C500090E05D98AC01022E02C0559547950A942C
:100C6000E2F740FF02C05E9A01C05E985D9A215093
:100C7000310978F70895569A559A549A539A529A88
:100C80005A985B982FEF89E698E121508040904078
:100C9000E1F700C000005B9A83EA0E94250680EA23
:100CA0000E94250680EC0E94250680E40E9425060D
:100CB0008CE20E9425062FEF80E792E021508040D1
:100CC0009040E1F700C000008EE20E9425062FEF61
:100CD00080E792E0215080409040E1F700C00000A2
:100CE0008FE20E9425068FE39CE90197F1F700C08F
:100CF000000086E20E94250608955C9A27E030E015
:100D000090E05D98AC01022E02C0559547950A947B
:100D1000E2F740FF02C05E9A01C05E985D9A2150E2
:100D2000310978F70895CF93C82F81E80E942506EE
:100D30008C2F8F730E942506CF910895CF92DF925A
:100D4000EF92FF920F931F93CF93DF930F2EF8E153
:100D5000EF2EF5E0FF2EF02DEC010F2EF8E2CF2E56
:100D6000F5E0DF2EF02DF7018081F2E0EF0EF11CAF
:100D7000806B0E94250680E00E94250680E10E948B
:100D8000250680EE0E9425068FEF0E947D068E01CB
:100D900000581F4F89910E947D06C017D107D1F7D7
:100DA000E801CE14DF04F9F6DF91CF911F910F9186
:100DB000FF90EF90DF90CF90089520E034E0FC01A9
:100DC000A901119241505040E1F7089530E0F90136
:100DD000EE0FFF1FEE0FFF1FE20FF31FE859FF4F4B
:100DE00055E0560F9C0170E8479F200D311D1124DE
:100DF0009491D901A60FB11D9C936F5F3196651335
:100E0000F7CF0895662314F44034E0F52130E9F477
:100E1000242F26952695269570E030E8239F600DB7
:100E2000711D1124FC01E60FF71F50E0409550950D
:100E30004770552781E090E002C0880F991F4A95BE
:100E4000E2F79081892B80830895242F269526959B
:100E5000269570E030E8239F600D711D1124FC0180
:100E6000E60FF71F50E0409550954770552781E0F9
:100E700090E002C0880F991F4A95E2F78095908113
:100E8000892380830895EF92FF920F931F93CF934E
:100E9000DF937C01C62FD42F890110C04D2F6C2FFA
:100EA000C7010E94E606CB5F8C2F90E00596813843
:100EB00091050CF0DF5FD93008F0D0E0F801219106
:100EC0008F012111EBCFDF91CF911F910F91FF90F7
:100ED000EF9008956F927F928F929F92AF92BF9200
:100EE000CF92DF92EF92FF920F931F93CF93DF93F6
:100EF0005C01C62F142FF22E802F90E0841B9109E5
:100F00006C0122F4CC24DD24C81AD90A8F2D90E07C
:100F10008C1B91094C0122F488249924881A990A7F
:100F20008C149D0434F48F2DF02E082F8C2FC12F9C
:100F3000182FFC16A8F16F2C6C1A202F30E0211B03
:100F40003109C901992324F488279927821B930B1F
:100F5000782ED62DD695101710F401E001C00FEFB2
:100F6000CF1530F035C0102F8C2FCF2DF82E0FEF6E
:100F70008C149D043CF42E2D4C2F612FC5010E9432
:100F8000020706C02E2D412F6C2FC5010E940207BB
:100F9000D71912F4100FD60DCF5FCF1548F318C034
:100FA0006C2E6F18212F30E0201B3109C9019923C5
:100FB00024F488279927821B930B782ED62DD6955B
:100FC000011788F6102F8C2FCF2DF82E01E0D0CFEF
:100FD000DF91CF911F910F91FF90EF90DF90CF9015
:100FE000BF90AF909F908F907F906F900895BF9229
:100FF000CF92DF92EF92FF920F931F93CF93DF93E5
:101000006C01162FF42EC02FD62FD20F042F2D2FA8
:101010000E946A07CF0D0C2F2D2F4F2D6D2FC6016B
:101020000E946A07212F4C2F6D2FC6010E946A076C
:101030000F2D212F4C2F612FC6010E946A07DF91CF
:10104000CF911F910F91FF90EF90DF90CF90BF90C5
:1010500008957F928F929F92AF92BF92CF92DF922C
:10106000EF92FF920F931F93CF93DF936C01862E25
:10107000A42EC22FD02F7E2C0E94F707B12C850101
:101080000F5F1F4FAD0EB11C0A151B05C4F4912C48
:101090007401EC0EF11CE4012196CE15DF0554F429
:1010A000272D402F6C2FC6010E9402072196CE15D6
:1010B000DF05B4F30F5F1F4F0A151B0564F3DF91C3
:1010C000CF911F910F91FF90EF90DF90CF90BF9045
:1010D000AF909F908F907F9008952F923F924F9264
:1010E0005F926F927F928F929F92AF92BF92CF92B8
:1010F000DF92EF92FF920F931F93CF93DF93CDB7C1
:10110000DEB729970FB6F894DEBF0FBECDBF30E033
:10111000F9013197F987E887F901EE0FFF1FFD8389
:10112000EC8321E030E05901AE1ABF0A28853985E9
:1011300033230CF477C0242E162F6C0181E090E04D
:101140009F838E8388248394912CE12CF12C202F73
:10115000722C7E0C472D9885910F9A83692FC601BA
:101160000E940207202FE22DEE19E9834E2FF12F66
:101170003885F31BFB836F2FC6010E940207202FC7
:101180003884320C432D612E6E0C662DC6010E94F0
:101190000207202F522C8885581A452D412E4E18B3
:1011A000642DC6010E940207202F432D642DC60125
:1011B0000E940207202F452D662DC6010E940207BE
:1011C000202F472D6B81C6010E940207202F4981E5
:1011D0006A81C6010E9402071A141B046CF09FEF7B
:1011E000E91AF90AEE81FF81AE0EBF1E3296FF8327
:1011F000EE831A141B0484F42885398521503109A3
:101200003987288732E0830E911CC401EC81FD816F
:101210008E1B9F0BA80EB91E288539852E153F05FC
:101220000CF095CF29960FB6F894DEBF0FBECDBF58
:10123000DF91CF911F910F91FF90EF90DF90CF90B2
:10124000BF90AF909F908F907F906F905F904F90E6
:101250003F902F9008952F923F924F925F926F92FE
:101260007F928F929F92AF92BF92CF92DF92EF9236
:10127000FF920F931F93CF93DF93CDB7DEB72B97DA
:101280000FB6F894DEBF0FBECDBF30E0F901319745
:10129000FB87EA87F901EE0FFF1FFF83EE8321E052
:1012A00030E05901AE1ABF0A2A853B8533230CF47E
:1012B00069C09D838C8381E090E099878887222490
:1012C0002394312CC12CD12CF42E902E162FE92CE6
:1012D0007F2C7C18072D912FEA859E1B9A83292F3E
:1012E000FF2DFC0DFB834F2F8E2E810E682D8C81E0
:1012F0009D810E946A074F2C2A85421A042D612E77
:101300006C18262D3A853F0D3983432F512E5C0CE6
:10131000652D8C819D810E946A07252D4981662D4E
:101320008C819D810E946A07072D282D4B816A813F
:101330008C819D810E946A071A141B046CF08FEF48
:10134000C81AD80AE885F985AE0EBF1E3296F9870D
:10135000E8871A141B0484F42A853B85215031093F
:101360003B872A8732E0230E311CC101EE81FF81C9
:101370008E1B9F0BA80EB91E2A853B852C153D059B
:101380000CF0A5CF2B960FB6F894DEBF0FBECDBFE5
:10139000DF91CF911F910F91FF90EF90DF90CF9051
:1013A000BF90AF909F908F907F906F905F904F9085
:1013B0003F902F900895EF920F93CF93E82E00E087
:1013C0002FE740E060E088E191E00E946A070FE3C8
:1013D00020E040E060E088E191E00E946A072FE7AA
:1013E0004FE360E088E191E00E946A0700E02FE7A8
:1013F0004FE36FE788E191E00E946A07CF910F9178
:10140000EF900895EF920F93CF93C82F0E94DB09BE
:101410002DE835E047E063E288E191E00E94430770
:101420000C2F24E140E260E488E191E00E946D0825
:1014300027E048E260E488E191E00E946D0825E041
:1014400047E168E388E191E00E946D0823E047E10D
:1014500068E388E191E00E942B0925E047E168E418
:1014600088E191E00E946D0823E047E168E488E1AB
:1014700091E00E942B09EC2E01E225E04FE066E0AE
:1014800088E191E00E94F70725E04FE063E788E1FB
:1014900091E00E94F707CF910F91EF900895EF929E
:1014A0000F93CF93C82F88E191E00E94DD06EC2EC8
:1014B0000CE027E345E065E088E191E00E94F70752
:1014C0002AE935E041E067E088E191E00E944307C6
:1014D00027E345E061E488E191E00E94F70723EA11
:1014E00035E041E063E488E191E00E944307CF9159
:1014F0000F91EF900895EF920F93CF93C82F88E14B
:1015000091E00E94DD06EC2E0CE023E245E065E070
:1015100088E191E00E94F7072CEA35E041E067E0BE
:1015200088E191E00E94430723E245E06DE288E113
:1015300091E00E94F70721EB35E041E06FE288E19E
:1015400091E00E94430723E245E065E588E191E0F0
:101550000E94F70728EB35E041E067E588E191E07C
:101560000E944307CF910F91EF9008950895EF9255
:101570000F93813031F580910201909103010A9619
:10158000CF9730F084E390E09093030180930201C1
:101590008091020190910301089730F489E090E076
:1015A0009093030180930201409102015091030145
:1015B000E62E0AE023E063E088E191E00E9429083A
:1015C00025C080910001909101010A96CF9730F0DB
:1015D00084E390E0909301018093000180910001E9
:1015E00090910101089730F489E090E09093010117
:1015F000809300014091000150910101E62E0AE024
:1016000023E06AE788E191E00E9429080F91EF90BA
:101610000895CF92DF92EF92FF920F931F93CF9393
:10162000DF93CDB7DEB764970FB6F894DEBF0FBE79
:10163000CDBFF82E2DEB35E040E062E088E191E08F
:101640000E94430726EC35E040E064E588E191E044
:101650000E9443078091F7051F928F930FEC15E0CE
:101660001F930F93CE0101966C019F938F930E945D
:101670008F0E8091F6051F928F931F930F938E010B
:10168000055F1F4F1F930F930E948F0E960140E03E
:1016900068E388E191E00E944307980140E063E439
:1016A00088E191E00E944307EF2C08E020E440E04D
:1016B00060E488E191E00E946A076F2D81E00E945A
:1016C000B70A6F2D82E00E94B70A88E191E00E947C
:1016D0009E069FEF25EE8AEA915020408040E1F778
:1016E00000C000000FB6F894DEBF0FBECDBF6496F9
:1016F0000FB6F894DEBF0FBECDBFDF91CF911F9123
:101700000F91FF90EF90DF90CF900895EF920F939D
:10171000CF93C82F88E191E00E94DD06EC2E06E30E
:101720002AE748E063E088E191E00E94F7070C2F88
:1017300023E040E260E488E191E00E942B098C2FD5
:101740000E94090BCF910F91EF90089588E191E0ED
:101750000E94DD068091F705833041F422ED35E0EB
:1017600046E060E288E191E00E9443072FED35E01A
:1017700046E060E288E191E00E9443071092F7059D
:101780001092F60588E191E00E949E062FEF8BE70C
:1017900092E9215080409040E1F700C0000088E1CC
:1017A00091E00E94DD060895CF93C82F8A3019F486
:1017B0008DE00E94D40BE0ECF0E0808185FFFDCF4E
:1017C000C093C60080E090E0CF910895E0ECF0E097
:1017D00080818823ECF78091C60090E008951092F4
:1017E000C50087E68093C400E0ECF0E080818D7F47
:1017F000808386E08093C20088E18093C100ECEF93
:10180000F5E086E395E09383828388E295E0918317
:1018100080830895579A5F981BB884B1856084B916
:1018200085B18A7F85B984E085B9219A299A109279
:10183000890010928800E0E8F0E080818068808371
:10184000808183608083E1E8F0E080818260808332
:101850000E943B060E94EF0B8FEA0E94250688E15A
:101860000E94930688E191E00E949E060E94D102A8
:101870002FEF8BE792E9215080409040E1F700C0C4
:10188000000088E191E00E94DD0688E191E00E947D
:101890009E068091F3059091F40580FD0AC0809129
:1018A000170181958093170180911601819580938E
:1018B000160103E010E0C4E08091FA059091FB0569
:1018C000009759F4C5B981E00E94020A88E191E0CD
:1018D0000E949E060E940A044BC08130910551F47B
:1018E00081E00E944F0A88E191E00E949E060E94DA
:1018F0003D043EC08230910551F481E00E947B0A94
:1019000088E191E00E949E060E949A0431C08330D3
:101910009105D1F460E081E00E94B70A60E082E0C6
:101920000E94B70A0E94190561E081E00E94B70A8F
:1019300061E082E00E94B70A81E00E948A0588E1A6
:1019400091E00E949E0614C08430910541F481E02C
:101950000E94B60A1093FB050093FA0509C005978B
:1019600039F481E00E94A60B1092FB051092FA0553
:101970000E94E4028091F90581110AC02FEF81EEE7
:1019800094E0215080409040E1F700C0000094CFE7
:10199000823039F48FE19EE40197F1F700C0000036
:1019A0008BCF9FEF20E782E0915020408040E1F70D
:1019B00000C0000081CF5058BB27AA270E94F30C1B
:1019C0000C94D20D0E94C40D38F00E94CB0D20F073
:1019D00039F49F3F19F426F40C94C10D0EF4E095F0
:1019E000E7FB0C94BB0DE92F0E94E30D58F3BA17E7
:1019F000620773078407950720F079F4A6F50C9425
:101A0000050E0EF4E0950B2EBA2FA02D0B01B90197
:101A100090010C01CA01A0011124FF27591B99F064
:101A2000593F50F4503E68F11A16F040A22F232F70
:101A3000342F4427585FF3CF469537952795A795C0
:101A4000F0405395C9F77EF41F16BA0B620B730B67
:101A5000840BBAF09150A1F0FF0FBB1F661F771FD8
:101A6000881FC2F70EC0BA0F621F731F841F48F48D
:101A7000879577956795B795F7959E3F08F0B0CF16
:101A80009395880F08F09927EE0F979587950895FD
:101A90000E944F0D6894B1110C94060E08950E9497
:101AA000EB0D88F09F5798F0B92F9927B751B0F0F8
:101AB000E1F0660F771F881F991F1AF0BA95C9F7D2
:101AC00014C0B13091F00E94050EB1E008950C945D
:101AD000050E672F782F8827B85F39F0B93FCCF310
:101AE000869577956795B395D9F73EF4909580954F
:101AF000709561957F4F8F4F9F4F0895E89409C06F
:101B000097FB3EF490958095709561957F4F8F4F30
:101B10009F4F9923A9F0F92F96E9BB279395F69546
:101B2000879577956795B795F111F8CFFAF4BB0FC4
:101B300011F460FF1BC06F5F7F4F8F4F9F4F16C028
:101B4000882311F096E911C0772321F09EE8872FB2
:101B5000762F05C0662371F096E8862F70E060E06E
:101B60002AF09A95660F771F881FDAF7880F9695E7
:101B7000879597F9089597F99F6780E870E060E08E
:101B800008959FEF80EC089500240A941616170616
:101B900018060906089500240A941216130614065E
:101BA00005060895092E0394000C11F4882352F0C1
:101BB000BB0F40F4BF2B11F460FF04C06F5F7F4F79
:101BC0008F4F9F4F089557FD9058440F551F59F060
:101BD0005F3F71F04795880F97FB991F61F09F3F1A
:101BE00079F087950895121613061406551FF2CF43
:101BF0004695F1DF08C0161617061806991FF1CF93
:101C000086957105610508940895E894BB276627B9
:101C10007727CB0197F908950E941F0E0C94D20DDF
:101C20000E94C40D38F00E94CB0D20F0952311F0D6
:101C30000C94BB0D0C94C10D11240C94060E0E9443
:101C4000E30D70F3959FC1F3950F50E0551F629F10
:101C5000F001729FBB27F00DB11D639FAA27F00D05
:101C6000B11DAA1F649F6627B00DA11D661F829F2C
:101C70002227B00DA11D621F739FB00DA11D621F11
:101C8000839FA00D611D221F749F3327A00D611D2E
:101C9000231F849F600D211D822F762F6A2F112410
:101CA0009F5750409AF0F1F088234AF0EE0FFF1F43
:101CB000BB1F661F771F881F91505040A9F79E3F9A
:101CC000510580F00C94BB0D0C94060E5F3FE4F3BD
:101CD000983ED4F3869577956795B795F795E795F0
:101CE0009F5FC1F7FE2B880F911D9695879597F9F9
:101CF0000895A0E0B0E0EFE7FEE00C945211AE01D1
:101D00004B5F5F4FFA0161917191AF018091FE05C8
:101D10009091FF050E94B10EE2E00C946E11AEE0CE
:101D2000B0E0E5E9FEE00C9450110D891E8986E0D3
:101D30008C831A8309838FEF9FE79E838D83AE0187
:101D4000475E5F4F6F89788DCE0101960E94B10E7C
:101D5000EF81F885E00FF11F10822E96E4E00C94DD
:101D60006C11ABE0B0E0E7EBFEE00C9442116C01CB
:101D70007B018A01FC0117821682838181FFCCC11D
:101D8000CE0101963C01F6019381F70193FD859107
:101D900093FF81917F01882309F4BAC1853239F418
:101DA00093FD859193FF81917F01853229F4B601DE
:101DB00090E00E94A810E7CF912C212C312CFFE15C
:101DC000F315D8F08B3279F038F4803279F0833221
:101DD000A1F4232D20611DC08D3261F0803369F4A0
:101DE000232D216016C0832D8260382EE32DE46000
:101DF0003E2E2AC0F32DF8601DC037FC2DC020ED0B
:101E0000280F2A3040F08E32B9F436FC81C1232DE0
:101E10002064322E19C036FE06C08AE0989E200D3E
:101E20001124922E11C0EAE02E9E200D1124222EA4
:101E3000F32DF0623F2E08C08C3621F4832D80688C
:101E4000382E02C0883641F4F70193FD859193FF47
:101E500081917F018111B3CF982F9F7D955493304D
:101E600028F40C5F1F4F9FE399830DC0833631F038
:101E7000833771F0833509F059C021C0F8018081A2
:101E800089830E5F1F4F88248394912C530113C0C4
:101E90002801F2E04F0E511CF801A080B18036FEFF
:101EA00003C0692D70E002C06FEF7FEFC5010E9493
:101EB0009D104C018201F32DFF773F2E16C02801A3
:101EC00022E0420E511CF801A080B18036FE03C012
:101ED000692D70E002C06FEF7FEFC5010E94921084
:101EE0004C01F32DF0683F2E820133FC1BC0822D84
:101EF00090E088169906B0F4B60180E290E00E9466
:101F0000A8102A94F4CFF50137FC859137FE819112
:101F10005F01B60190E00E94A81021102A9421E0F0
:101F2000821A91088114910471F7E8C0843611F087
:101F3000893641F5F80137FE07C0608171818281E1
:101F400093810C5F1F4F08C060817181072E000CC8
:101F5000880B990B0E5F1F4FF32DFF763F2E97FFD7
:101F600009C090958095709561957F4F8F4F9F4FD9
:101F7000F0683F2E2AE030E0A3010E94E410882E92
:101F8000861845C0853731F4232D2F7EB22E2AE0E6
:101F900030E025C0932D997FB92E8F36C1F018F40B
:101FA000883579F0B5C0803719F0883721F0B0C096
:101FB000E92FE061BE2EB4FE0DC0FB2DF460BF2EF4
:101FC00009C034FE0AC0292F2660B22E06C028E0C0
:101FD00030E005C020E130E002C020E132E0F8014D
:101FE000B7FE07C060817181828193810C5F1F4FB2
:101FF00006C06081718180E090E00E5F1F4FA301F9
:102000000E94E410882E8618FB2DFF773F2E36FEA7
:102010000DC0232D2E7FA22E891458F434FE0BC040
:1020200032FC09C0832D8E7EA82E05C0B82CA32CAF
:1020300003C0B82C01C0B92CA4FE0FC0FE01E80DEE
:10204000F11D8081803321F49A2D997EA92E09C03B
:10205000A2FE06C0B394B39404C08A2D867809F01A
:10206000B394A3FC11C0A0FE06C0B21488F4280CDF
:10207000922C9B180EC0B21460F4B60180E290E07E
:102080000E94A810B394F7CFB21418F42B1802C012
:10209000982C212CA4FE10C0B60180E390E00E9491
:1020A000A810A2FE17C0A1FC03C088E790E002C000
:1020B00088E590E0B6010CC08A2D867859F0A1FE23
:1020C00002C08BE201C080E2A7FC8DE2B60190E085
:1020D0000E94A810891438F4B60180E390E00E94B1
:1020E000A8109A94F7CF8A94F301E80DF11D80812E
:1020F000B60190E00E94A8108110F5CF222009F4CB
:1021000042CEB60180E290E00E94A8102A94F6CF59
:10211000F6018681978102C08FEF9FEF2B96E2E157
:102120000C945E11FC010590615070400110D8F7CD
:10213000809590958E0F9F1F0895FC01615070400F
:1021400001900110D8F7809590958E0F9F1F0895EC
:102150000F931F93CF93DF93FB01238121FD03C0D6
:102160008FEF9FEF2CC022FF16C04681578124813C
:1021700035814217530744F4A081B1819D012F5F3F
:102180003F4F318320838C93268137812F5F3F4FD0
:102190003783268314C08B01EC01FB010084F18599
:1021A000E02D0995892BE1F6D80116968D919C9129
:1021B0001797019617969C938E931697CE01DF91F1
:1021C000CF911F910F910895FA01AA27283051F15C
:1021D000203181F1E8946F936E7F6E5F7F4F8F4F58
:1021E0009F4FAF4FB1E03ED0B4E03CD0670F781FB7
:1021F000891F9A1FA11D680F791F8A1F911DA11D9C
:102200006A0F711D811D911DA11D20D009F46894D4
:102210003F912AE0269F11243019305D3193DEF67C
:10222000CF010895462F4770405D4193B3E00FD032
:10223000C9F7F6CF462F4F70405D4A3318F0495D1D
:1022400031FD4052419302D0A9F7EACFB4E0A69500
:102250009795879577956795BA95C9F70097610522
:10226000710508959B01AC010A2E06945795479578
:1022700037952795BA95C9F7620F731F841F951F6D
:10228000A01D08952F923F924F925F926F927F927E
:102290008F929F92AF92BF92CF92DF92EF92FF9276
:1022A0000F931F93CF93DF93CDB7DEB7CA1BDB0B22
:1022B0000FB6F894DEBF0FBECDBF09942A883988C7
:1022C00048885F846E847D848C849B84AA84B984CE
:1022D000C884DF80EE80FD800C811B81AA81B981DA
:1022E000CE0FD11D0FB6F894DEBF0FBECDBFED01EE
:0622F0000895F894FFCFF1
:1022F600200024006666063E31032DBA383E5101A1
:102306007603B600204001017F7F7F7F717F717F5A
:102316007F7F7F7F7E7F7A7B7F7F7F7F7F7F7F7FD1
:102326007F717F7F717F7F7F0000606060787F7F35
:102336007F7F7F606060606060707078783E3F1F6E
:102346001F0F070100000000000000000000000051
:102356000000000000000000000000000000000077
:102366000000000000000000000000000000000067
:102376000000000000000000000000000000000057
:102386000000000000000000FFFFF0F0F0F0F0F0A9
:10239600F0F0F0F0F1F3F7FFFFFFF7F1F0F0F0F0F7
:1023A600F0F0F0F0F0F0F0FF000000000000FFFF9A
:1023B600FFFFFF000000000000000000000083FF98
:1023C600FFFFFFFF3C0001010303030303030101B9
:1023D60000000000010101010303030303000001E3
:1023E60001030303030303010000000000000101D1
:1023F60001030303030300000001010303030303B6
:102406000101000000000000E0FF03000103070FC8
:102416001E3E7FFFFFFF9F0F0F8FFFFFFF7F3E1EBA
:102426000F07030100013FFC000000000000FFFF52
:10243600FFFFFF1C1C1C1C1C1C1C1C3C78F8F8F81D
:10244600F1EFDFFF7FFFE1C18181818181C1E1F988
:10245600FFFF7F1F878080C0FFFFFFFFFF78F0E050
:10246600C0C0C0C0C0E0FFFFFFFF3F070000808084
:1024760080FFFFFFFFFF3C78F0E0C0C0C0C0E0F087
:10248600FFFFFF7F1F0000000080E0F8FCFFFF3F1A
:102496001F1E3CF8F0E0C08000C0E0F0F83C1E1FB4
:1024A6003FFFFFFCF8E08000000000000000FFFF97
:1024B600FFFFFF0000000000000000000000000019
:1024C600FEFFFFFFFFBF818080808080808080804C
:1024D6008080808080000000FFFFFFFFFF0000007B
:1024E600000000000000FFFFFFFFFFFF00000000EC
:1024F60000FFFFFFFFFF00000000000000000000DB
:10250600FFFFFFFFFF00000000000000000080C08A
:10251600E07030180C0C0606060C0C18183060E03B
:10252600C0800000000000000000060E0E3EFEFE09
:10253600FEFEFE7E0E0E06000000000000000000FB
:102546000080E0F0F8FCFC7E3E1E0E0E0E060E0E1F
:102556000E1C3878E6060E1EFEFEFEFEFE0E0E066B
:1025660000000006060EFEFEFEFEFEFE0E0E06062F
:102576000EFEFEFEFEFE7E0E0E06000000060E0E8F
:10258600FEFEFEFEFE1E0E0600000000000000001D
:102596000000000000000000000000000000010133
:1025A6000000000000000000000000000000000025
:1025B6000000000101010000000000000101000010
:1025C6000000000000000000000000000101010002
:1025D60000000000000001010000000000000000F3
:1025E60000000000000000000000000000000000E5
:1025F60000000000000000000000000000000000D5
:1026060000000000000000000000FFFFCECECECE8E
:10261600001F1F1F38381F1F1C383C1F0F00FFFFED
:102626001C38381F1F07071F1F3B3B1F1F07071FAD
:102636001F3838FFFFFF000F1F38381CFFFF000F41
:102646001F1F3B3B1F1F070F1F1F3838FFFFFF00D1
:1026560000000078FCFCCECFC7C3181F1F03031F62
:102666001F181E1F3F3B1B0118FFFF1818000F1FE6
:102676003B3B3B1F0F001F1F1C383C1F1F18383FDA
:102686001F07001F3F3B3B190000F0F07070707091
:1026960000F0F0F00000F0F0000000F0F000F0F0C4
:1026A600F07070F0E080C0E0F07030707000C0E054
:1026B600F07070E0F0F000E0F0707070F0F000C0C4
:1026C600E0F07030707000C0E0F07070F0F0F00074
:1026D6000000006070703070F0E00000EEFEFCE07C
:1026E6000000707030F0F0E000E0F0707000E0F094
:1026F600703030706000F0F0000000F0F00000F084
:10270600F0F0607030B0F0E003000200010000005D
:10271600070006000500040000000001000000009C
:102726000000E60B00000000000200000000D40BD1
:10273600000000004C434420506F7320583A202577
:1027460075202D2D2D2D2D2D2D2D2D2D20504F73FA
:1027560020593A25750A002575202D2D2D2D2D2D54
:102766002D2D2D2D2D2D25750A002564202D2D2D81
:102776002D2D2D2D2D2D2D2D2D25640A004C657406
:102786007320506C6179212121003120506C6179D0
:102796006572003220506C6179657200456173790B
:1027A600004D656469756D004861726400506C6126
:1027B600796572203100506C61796572203200258E
:1027C6006400506C61796572203120576F6E00503D
:0C27D6006C61796572203220576F6E0034
:00000001FF
